{
  "contractName": "HealthRecord",
  "abi": [
    {
      "constant": true,
      "inputs": [
        {
          "name": "",
          "type": "address"
        }
      ],
      "name": "records",
      "outputs": [
        {
          "name": "jsonData",
          "type": "string"
        },
        {
          "name": "isDoctor",
          "type": "bool"
        }
      ],
      "payable": false,
      "stateMutability": "view",
      "type": "function"
    },
    {
      "anonymous": false,
      "inputs": [
        {
          "indexed": true,
          "name": "user",
          "type": "address"
        },
        {
          "indexed": false,
          "name": "jsonData",
          "type": "string"
        },
        {
          "indexed": false,
          "name": "isSick",
          "type": "bool"
        }
      ],
      "name": "RecordSet",
      "type": "event"
    },
    {
      "constant": false,
      "inputs": [
        {
          "name": "_user",
          "type": "address"
        },
        {
          "name": "_jsonData",
          "type": "string"
        },
        {
          "name": "_isDoctor",
          "type": "bool"
        }
      ],
      "name": "setRecord",
      "outputs": [],
      "payable": false,
      "stateMutability": "nonpayable",
      "type": "function"
    },
    {
      "constant": true,
      "inputs": [
        {
          "name": "_user",
          "type": "address"
        }
      ],
      "name": "getRecord",
      "outputs": [
        {
          "name": "",
          "type": "string"
        },
        {
          "name": "",
          "type": "bool"
        }
      ],
      "payable": false,
      "stateMutability": "view",
      "type": "function"
    }
  ],
  "bytecode": "0x608060405234801561001057600080fd5b50610865806100206000396000f3fe608060405260043610610051576000357c01000000000000000000000000000000000000000000000000000000009004806327a1f79614610056578063469e90671461014a578063617fba041461021f575b600080fd5b34801561006257600080fd5b506101486004803603606081101561007957600080fd5b81019080803573ffffffffffffffffffffffffffffffffffffffff169060200190929190803590602001906401000000008111156100b657600080fd5b8201836020820111156100c857600080fd5b803590602001918460018302840111640100000000831117156100ea57600080fd5b91908080601f016020809104026020016040519081016040528093929190818152602001838380828437600081840152601f19601f8201169050808301925050505050505091929192908035151590602001909291905050506102f4565b005b34801561015657600080fd5b506101996004803603602081101561016d57600080fd5b81019080803573ffffffffffffffffffffffffffffffffffffffff1690602001909291905050506104c6565b604051808060200183151515158152602001828103825284818151815260200191508051906020019080838360005b838110156101e35780820151818401526020810190506101c8565b50505050905090810190601f1680156102105780820380516001836020036101000a031916815260200191505b50935050505060405180910390f35b34801561022b57600080fd5b5061026e6004803603602081101561024257600080fd5b81019080803573ffffffffffffffffffffffffffffffffffffffff16906020019092919050505061058f565b604051808060200183151515158152602001828103825284818151815260200191508051906020019080838360005b838110156102b857808201518184015260208101905061029d565b50505050905090810190601f1680156102e55780820380516001836020036101000a031916815260200191505b50935050505060405180910390f35b6000825111151561036d576040517f08c379a00000000000000000000000000000000000000000000000000000000081526004018080602001828103825260148152602001807f446174612063616e6e6f7420626520656d70747900000000000000000000000081525060200191505060405180910390fd5b60408051908101604052808381526020018215158152506000808573ffffffffffffffffffffffffffffffffffffffff1673ffffffffffffffffffffffffffffffffffffffff16815260200190815260200160002060008201518160000190805190602001906103de929190610794565b5060208201518160010160006101000a81548160ff0219169083151502179055509050508273ffffffffffffffffffffffffffffffffffffffff167f814342bcb90a6ce05efe69e55eb1a21c3c95344ac194685f1120a6c32f09cba78383604051808060200183151515158152602001828103825284818151815260200191508051906020019080838360005b8381101561048657808201518184015260208101905061046b565b50505050905090810190601f1680156104b35780820380516001836020036101000a031916815260200191505b50935050505060405180910390a2505050565b6000602052806000526040600020600091509050806000018054600181600116156101000203166002900480601f0160208091040260200160405190810160405280929190818152602001828054600181600116156101000203166002900480156105725780601f1061054757610100808354040283529160200191610572565b820191906000526020600020905b81548152906001019060200180831161055557829003601f168201915b5050505050908060010160009054906101000a900460ff16905082565b60606000806000808573ffffffffffffffffffffffffffffffffffffffff1673ffffffffffffffffffffffffffffffffffffffff16815260200190815260200160002060000180546001816001161561010002031660029004905011151561065f576040517f08c379a00000000000000000000000000000000000000000000000000000000081526004018080602001828103825260158152602001807f5265636f726420646f6573206e6f74206578697374000000000000000000000081525060200191505060405180910390fd5b6000808473ffffffffffffffffffffffffffffffffffffffff1673ffffffffffffffffffffffffffffffffffffffff1681526020019081526020016000206000016000808573ffffffffffffffffffffffffffffffffffffffff1673ffffffffffffffffffffffffffffffffffffffff16815260200190815260200160002060010160009054906101000a900460ff16818054600181600116156101000203166002900480601f0160208091040260200160405190810160405280929190818152602001828054600181600116156101000203166002900480156107845780601f1061075957610100808354040283529160200191610784565b820191906000526020600020905b81548152906001019060200180831161076757829003601f168201915b5050505050915091509150915091565b828054600181600116156101000203166002900490600052602060002090601f016020900481019282601f106107d557805160ff1916838001178555610803565b82800160010185558215610803579182015b828111156108025782518255916020019190600101906107e7565b5b5090506108109190610814565b5090565b61083691905b8082111561083257600081600090555060010161081a565b5090565b9056fea165627a7a72305820241a3d591fbbc12c6cc77f55db72f55411d0d69c4b45ac0ae0f2f4406b196cba0029",
  "source": "// SPDX-License-Identifier: MIT\npragma solidity 0.5.1;\n\ncontract HealthRecord {\n    struct Record {\n        // Store patient data as a single string in JSON format\n        string jsonData;\n        bool isDoctor;\n    }\n\n    mapping(address => Record) public records;\n\n    // Event to emit when record is set\n    event RecordSet(address indexed user, string jsonData, bool isSick);\n\n    function setRecord(address _user, string memory _jsonData, bool _isDoctor) public {\n        require(bytes(_jsonData).length > 0, \"Data cannot be empty\");\n        records[_user] = Record(_jsonData, _isDoctor);\n        emit RecordSet(_user, _jsonData, _isDoctor); // Emit an event when a record is set\n    }\n\n    function getRecord(address _user) public view returns (string memory, bool) {\n        require(bytes(records[_user].jsonData).length > 0, \"Record does not exist\");\n        return (records[_user].jsonData, records[_user].isDoctor);\n    }\n}",
  "sourcePath": "/Users/mrnoodles/my-smart-contract-project/contracts/HealthRecord.sol",
  "compiler": {
    "name": "solc",
    "version": "0.5.1+commit.c8a2cb62.Emscripten.clang"
  },
  "schemaVersion": "3.4.16",
  "updatedAt": "2024-06-08T19:58:59.640Z",
  "devdoc": {
    "methods": {}
  },
  "userdoc": {
    "methods": {}
  }
}